{
  "transactions": [
    {
      "hash": "0x212940c2df8f9e9931bb4f694e4adf53f1e1c5d17cfe5d968ae1b886e248a9f3",
      "transactionType": "CALL",
      "contractName": null,
      "contractAddress": "0xD0f38A3Fb0F71e3d2B60e90327afde25618e1150",
      "function": "setBaseUri(string)",
      "arguments": [
        "\"https://app.gorillionai.re/nft-metadata/\""
      ],
      "transaction": {
        "type": "0x02",
        "from": "0x9a9d075a63be26e0a2d905e49715a26b4163396c",
        "to": "0xd0f38a3fb0f71e3d2b60e90327afde25618e1150",
        "gas": "0x1ab1b",
        "value": "0x0",
        "data": "0xa0bcfc7f0000000000000000000000000000000000000000000000000000000000000020000000000000000000000000000000000000000000000000000000000000002868747470733a2f2f6170702e676f72696c6c696f6e61692e72652f6e66742d6d657461646174612f000000000000000000000000000000000000000000000000",
        "nonce": "0x1e",
        "accessList": []
      },
      "additionalContracts": [],
      "isFixedGasLimit": false
    }
  ],
  "receipts": [
    {
      "transactionHash": "0x212940c2df8f9e9931bb4f694e4adf53f1e1c5d17cfe5d968ae1b886e248a9f3",
      "transactionIndex": "0x4",
      "blockHash": "0x6d2634241dd62391ca0ed82f08e46356f739cb65101184ccceea27264639d5ca",
      "blockNumber": "0xbbf75c",
      "from": "0x9a9D075A63BE26e0a2D905E49715A26B4163396c",
      "to": "0xD0f38A3Fb0F71e3d2B60e90327afde25618e1150",
      "cumulativeGasUsed": "0xbd829",
      "gasUsed": "0x1ab1b",
      "contractAddress": null,
      "logs": [],
      "status": "0x1",
      "logsBloom": "0x00000000000000000000000000000000000000000000000000000000000000000000000000000000000000000000000000000000000000000000000000000000000000000000000000000000000000000000000000000000000000000000000000000000000000000000000000000000000000000000000000000000000000000000000000000000000000000000000000000000000000000000000000000000000000000000000000000000000000000000000000000000000000000000000000000000000000000000000000000000000000000000000000000000000000000000000000000000000000000000000000000000000000000000000000000000",
      "type": "0x2",
      "effectiveGasPrice": "0xc570bd200"
    }
  ],
  "libraries": [],
  "pending": [],
  "returns": {},
  "timestamp": 1744719058,
  "chain": 10143,
  "commit": "4aad4c4"
}